{"contracts/ReceiptRegistry.sol":{"ReceiptRegistry":{"abi":[{"anonymous":false,"inputs":[{"indexed":true,"internalType":"uint256","name":"receiptId","type":"uint256"},{"indexed":true,"internalType":"uint256","name":"orderId","type":"uint256"},{"indexed":true,"internalType":"address","name":"buyer","type":"address"},{"indexed":false,"internalType":"address","name":"merchant","type":"address"},{"indexed":false,"internalType":"uint256","name":"amount","type":"uint256"},{"indexed":false,"internalType":"uint256","name":"timestamp","type":"uint256"}],"name":"ReceiptRecorded","type":"event"},{"inputs":[{"internalType":"uint256","name":"receiptId","type":"uint256"}],"name":"getReceipt","outputs":[{"internalType":"uint256","name":"orderId","type":"uint256"},{"internalType":"address","name":"buyer","type":"address"},{"internalType":"address","name":"merchant","type":"address"},{"internalType":"uint256","name":"amount","type":"uint256"},{"internalType":"uint256","name":"timestamp","type":"uint256"}],"stateMutability":"view","type":"function"},{"inputs":[],"name":"receiptCount","outputs":[{"internalType":"uint256","name":"","type":"uint256"}],"stateMutability":"view","type":"function"},{"inputs":[{"internalType":"uint256","name":"receiptId","type":"uint256"}],"name":"receiptExists","outputs":[{"internalType":"bool","name":"","type":"bool"}],"stateMutability":"view","type":"function"},{"inputs":[{"internalType":"uint256","name":"","type":"uint256"}],"name":"receipts","outputs":[{"internalType":"uint256","name":"orderId","type":"uint256"},{"internalType":"address","name":"buyer","type":"address"},{"internalType":"address","name":"merchant","type":"address"},{"internalType":"uint256","name":"amount","type":"uint256"},{"internalType":"uint256","name":"timestamp","type":"uint256"},{"internalType":"bool","name":"exists","type":"bool"}],"stateMutability":"view","type":"function"},{"inputs":[{"internalType":"uint256","name":"orderId","type":"uint256"},{"internalType":"address","name":"buyer","type":"address"},{"internalType":"address","name":"merchant","type":"address"},{"internalType":"uint256","name":"amount","type":"uint256"}],"name":"recordReceipt","outputs":[{"internalType":"uint256","name":"","type":"uint256"}],"stateMutability":"nonpayable","type":"function"}],"evm":{"bytecode":{"linkReferences":{},"object":"608060405234801561001057600080fd5b5061044f806100206000396000f3fe608060405234801561001057600080fd5b50600436106100575760003560e01c80630f7ee1ec1461005c5780633d18f652146100ef5780636b4fdcff146101255780637f038f3c14610146578063b63e6ac31461014f575b600080fd5b6100af61006a366004610379565b60006020819052908152604090208054600182015460028301546003840154600485015460059095015493946001600160a01b03938416949290931692909160ff1686565b604080519687526001600160a01b039586166020880152939094169285019290925260608401526080830152151560a082015260c0015b60405180910390f35b6101156100fd366004610379565b60009081526020819052604090206005015460ff1690565b60405190151581526020016100e6565b6101386101333660046103ae565b610196565b6040519081526020016100e6565b61013860015481565b61016261015d366004610379565b6102a0565b604080519586526001600160a01b03948516602087015292909316918401919091526060830152608082015260a0016100e6565b60018054600091829190826101aa836103f2565b909155506040805160c0810182528881526001600160a01b0388811660208084018281528a841685870181815260608088018d81524260808a01818152600160a08c0181815260008f8152808b528e90209c518d559751908c018054918c166001600160a01b0319928316179055945160028c01805491909b169516949094179098555160038901559051600488015591516005909601805496151560ff1990971696909617909555855194855290840189905293830191909152929350889184917f173f8acdb03e190e3adcac97b117e6613c4fad26fb138308c5e089c1d55d08ff910160405180910390a495945050505050565b600081815260208181526040808320815160c0810183528154815260018201546001600160a01b039081169482019490945260028201549093169183019190915260038101546060830152600481015460808301526005015460ff16151560a0820181905282918291829182916103515760405162461bcd60e51b8152602060048201526011602482015270149958d95a5c1d081b9bdd08199bdd5b99607a1b604482015260640160405180910390fd5b8051602082015160408301516060840151608090940151929a91995097509195509350915050565b60006020828403121561038b57600080fd5b5035919050565b80356001600160a01b03811681146103a957600080fd5b919050565b600080600080608085870312156103c457600080fd5b843593506103d460208601610392565b92506103e260408601610392565b9396929550929360600135925050565b60006001820161041257634e487b7160e01b600052601160045260246000fd5b506001019056fea26469706673582212207eb92c9f94e55192716734fc657ce2367a354887555665336a3afea4fa8523ce64736f6c63430008140033","opcodes":"PUSH1 0x80 PUSH1 0x40 MSTORE CALLVALUE DUP1 ISZERO PUSH2 0x10 JUMPI PUSH1 0x0 DUP1 REVERT JUMPDEST POP PUSH2 0x44F DUP1 PUSH2 0x20 PUSH1 0x0 CODECOPY PUSH1 0x0 RETURN INVALID PUSH1 0x80 PUSH1 0x40 MSTORE CALLVALUE DUP1 ISZERO PUSH2 0x10 JUMPI PUSH1 0x0 DUP1 REVERT JUMPDEST POP PUSH1 0x4 CALLDATASIZE LT PUSH2 0x57 JUMPI PUSH1 0x0 CALLDATALOAD PUSH1 0xE0 SHR DUP1 PUSH4 0xF7EE1EC EQ PUSH2 0x5C JUMPI DUP1 PUSH4 0x3D18F652 EQ PUSH2 0xEF JUMPI DUP1 PUSH4 0x6B4FDCFF EQ PUSH2 0x125 JUMPI DUP1 PUSH4 0x7F038F3C EQ PUSH2 0x146 JUMPI DUP1 PUSH4 0xB63E6AC3 EQ PUSH2 0x14F JUMPI JUMPDEST PUSH1 0x0 DUP1 REVERT JUMPDEST PUSH2 0xAF PUSH2 0x6A CALLDATASIZE PUSH1 0x4 PUSH2 0x379 JUMP JUMPDEST PUSH1 0x0 PUSH1 0x20 DUP2 SWAP1 MSTORE SWAP1 DUP2 MSTORE PUSH1 0x40 SWAP1 KECCAK256 DUP1 SLOAD PUSH1 0x1 DUP3 ADD SLOAD PUSH1 0x2 DUP4 ADD SLOAD PUSH1 0x3 DUP5 ADD SLOAD PUSH1 0x4 DUP6 ADD SLOAD PUSH1 0x5 SWAP1 SWAP6 ADD SLOAD SWAP4 SWAP5 PUSH1 0x1 PUSH1 0x1 PUSH1 0xA0 SHL SUB SWAP4 DUP5 AND SWAP5 SWAP3 SWAP1 SWAP4 AND SWAP3 SWAP1 SWAP2 PUSH1 0xFF AND DUP7 JUMP JUMPDEST PUSH1 0x40 DUP1 MLOAD SWAP7 DUP8 MSTORE PUSH1 0x1 PUSH1 0x1 PUSH1 0xA0 SHL SUB SWAP6 DUP7 AND PUSH1 0x20 DUP9 ADD MSTORE SWAP4 SWAP1 SWAP5 AND SWAP3 DUP6 ADD SWAP3 SWAP1 SWAP3 MSTORE PUSH1 0x60 DUP5 ADD MSTORE PUSH1 0x80 DUP4 ADD MSTORE ISZERO ISZERO PUSH1 0xA0 DUP3 ADD MSTORE PUSH1 0xC0 ADD JUMPDEST PUSH1 0x40 MLOAD DUP1 SWAP2 SUB SWAP1 RETURN JUMPDEST PUSH2 0x115 PUSH2 0xFD CALLDATASIZE PUSH1 0x4 PUSH2 0x379 JUMP JUMPDEST PUSH1 0x0 SWAP1 DUP2 MSTORE PUSH1 0x20 DUP2 SWAP1 MSTORE PUSH1 0x40 SWAP1 KECCAK256 PUSH1 0x5 ADD SLOAD PUSH1 0xFF AND SWAP1 JUMP JUMPDEST PUSH1 0x40 MLOAD SWAP1 ISZERO ISZERO DUP2 MSTORE PUSH1 0x20 ADD PUSH2 0xE6 JUMP JUMPDEST PUSH2 0x138 PUSH2 0x133 CALLDATASIZE PUSH1 0x4 PUSH2 0x3AE JUMP JUMPDEST PUSH2 0x196 JUMP JUMPDEST PUSH1 0x40 MLOAD SWAP1 DUP2 MSTORE PUSH1 0x20 ADD PUSH2 0xE6 JUMP JUMPDEST PUSH2 0x138 PUSH1 0x1 SLOAD DUP2 JUMP JUMPDEST PUSH2 0x162 PUSH2 0x15D CALLDATASIZE PUSH1 0x4 PUSH2 0x379 JUMP JUMPDEST PUSH2 0x2A0 JUMP JUMPDEST PUSH1 0x40 DUP1 MLOAD SWAP6 DUP7 MSTORE PUSH1 0x1 PUSH1 0x1 PUSH1 0xA0 SHL SUB SWAP5 DUP6 AND PUSH1 0x20 DUP8 ADD MSTORE SWAP3 SWAP1 SWAP4 AND SWAP2 DUP5 ADD SWAP2 SWAP1 SWAP2 MSTORE PUSH1 0x60 DUP4 ADD MSTORE PUSH1 0x80 DUP3 ADD MSTORE PUSH1 0xA0 ADD PUSH2 0xE6 JUMP JUMPDEST PUSH1 0x1 DUP1 SLOAD PUSH1 0x0 SWAP2 DUP3 SWAP2 SWAP1 DUP3 PUSH2 0x1AA DUP4 PUSH2 0x3F2 JUMP JUMPDEST SWAP1 SWAP2 SSTORE POP PUSH1 0x40 DUP1 MLOAD PUSH1 0xC0 DUP2 ADD DUP3 MSTORE DUP9 DUP2 MSTORE PUSH1 0x1 PUSH1 0x1 PUSH1 0xA0 SHL SUB DUP9 DUP2 AND PUSH1 0x20 DUP1 DUP5 ADD DUP3 DUP2 MSTORE DUP11 DUP5 AND DUP6 DUP8 ADD DUP2 DUP2 MSTORE PUSH1 0x60 DUP1 DUP9 ADD DUP14 DUP2 MSTORE TIMESTAMP PUSH1 0x80 DUP11 ADD DUP2 DUP2 MSTORE PUSH1 0x1 PUSH1 0xA0 DUP13 ADD DUP2 DUP2 MSTORE PUSH1 0x0 DUP16 DUP2 MSTORE DUP1 DUP12 MSTORE DUP15 SWAP1 KECCAK256 SWAP13 MLOAD DUP14 SSTORE SWAP8 MLOAD SWAP1 DUP13 ADD DUP1 SLOAD SWAP2 DUP13 AND PUSH1 0x1 PUSH1 0x1 PUSH1 0xA0 SHL SUB NOT SWAP3 DUP4 AND OR SWAP1 SSTORE SWAP5 MLOAD PUSH1 0x2 DUP13 ADD DUP1 SLOAD SWAP2 SWAP1 SWAP12 AND SWAP6 AND SWAP5 SWAP1 SWAP5 OR SWAP1 SWAP9 SSTORE MLOAD PUSH1 0x3 DUP10 ADD SSTORE SWAP1 MLOAD PUSH1 0x4 DUP9 ADD SSTORE SWAP2 MLOAD PUSH1 0x5 SWAP1 SWAP7 ADD DUP1 SLOAD SWAP7 ISZERO ISZERO PUSH1 0xFF NOT SWAP1 SWAP8 AND SWAP7 SWAP1 SWAP7 OR SWAP1 SWAP6 SSTORE DUP6 MLOAD SWAP5 DUP6 MSTORE SWAP1 DUP5 ADD DUP10 SWAP1 MSTORE SWAP4 DUP4 ADD SWAP2 SWAP1 SWAP2 MSTORE SWAP3 SWAP4 POP DUP9 SWAP2 DUP5 SWAP2 PUSH32 0x173F8ACDB03E190E3ADCAC97B117E6613C4FAD26FB138308C5E089C1D55D08FF SWAP2 ADD PUSH1 0x40 MLOAD DUP1 SWAP2 SUB SWAP1 LOG4 SWAP6 SWAP5 POP POP POP POP POP JUMP JUMPDEST PUSH1 0x0 DUP2 DUP2 MSTORE PUSH1 0x20 DUP2 DUP2 MSTORE PUSH1 0x40 DUP1 DUP4 KECCAK256 DUP2 MLOAD PUSH1 0xC0 DUP2 ADD DUP4 MSTORE DUP2 SLOAD DUP2 MSTORE PUSH1 0x1 DUP3 ADD SLOAD PUSH1 0x1 PUSH1 0x1 PUSH1 0xA0 SHL SUB SWAP1 DUP2 AND SWAP5 DUP3 ADD SWAP5 SWAP1 SWAP5 MSTORE PUSH1 0x2 DUP3 ADD SLOAD SWAP1 SWAP4 AND SWAP2 DUP4 ADD SWAP2 SWAP1 SWAP2 MSTORE PUSH1 0x3 DUP2 ADD SLOAD PUSH1 0x60 DUP4 ADD MSTORE PUSH1 0x4 DUP2 ADD SLOAD PUSH1 0x80 DUP4 ADD MSTORE PUSH1 0x5 ADD SLOAD PUSH1 0xFF AND ISZERO ISZERO PUSH1 0xA0 DUP3 ADD DUP2 SWAP1 MSTORE DUP3 SWAP2 DUP3 SWAP2 DUP3 SWAP2 DUP3 SWAP2 PUSH2 0x351 JUMPI PUSH1 0x40 MLOAD PUSH3 0x461BCD PUSH1 0xE5 SHL DUP2 MSTORE PUSH1 0x20 PUSH1 0x4 DUP3 ADD MSTORE PUSH1 0x11 PUSH1 0x24 DUP3 ADD MSTORE PUSH17 0x149958D95A5C1D081B9BDD08199BDD5B99 PUSH1 0x7A SHL PUSH1 0x44 DUP3 ADD MSTORE PUSH1 0x64 ADD PUSH1 0x40 MLOAD DUP1 SWAP2 SUB SWAP1 REVERT JUMPDEST DUP1 MLOAD PUSH1 0x20 DUP3 ADD MLOAD PUSH1 0x40 DUP4 ADD MLOAD PUSH1 0x60 DUP5 ADD MLOAD PUSH1 0x80 SWAP1 SWAP5 ADD MLOAD SWAP3 SWAP11 SWAP2 SWAP10 POP SWAP8 POP SWAP2 SWAP6 POP SWAP4 POP SWAP2 POP POP JUMP JUMPDEST PUSH1 0x0 PUSH1 0x20 DUP3 DUP5 SUB SLT ISZERO PUSH2 0x38B JUMPI PUSH1 0x0 DUP1 REVERT JUMPDEST POP CALLDATALOAD SWAP2 SWAP1 POP JUMP JUMPDEST DUP1 CALLDATALOAD PUSH1 0x1 PUSH1 0x1 PUSH1 0xA0 SHL SUB DUP2 AND DUP2 EQ PUSH2 0x3A9 JUMPI PUSH1 0x0 DUP1 REVERT JUMPDEST SWAP2 SWAP1 POP JUMP JUMPDEST PUSH1 0x0 DUP1 PUSH1 0x0 DUP1 PUSH1 0x80 DUP6 DUP8 SUB SLT ISZERO PUSH2 0x3C4 JUMPI PUSH1 0x0 DUP1 REVERT JUMPDEST DUP5 CALLDATALOAD SWAP4 POP PUSH2 0x3D4 PUSH1 0x20 DUP7 ADD PUSH2 0x392 JUMP JUMPDEST SWAP3 POP PUSH2 0x3E2 PUSH1 0x40 DUP7 ADD PUSH2 0x392 JUMP JUMPDEST SWAP4 SWAP7 SWAP3 SWAP6 POP SWAP3 SWAP4 PUSH1 0x60 ADD CALLDATALOAD SWAP3 POP POP JUMP JUMPDEST PUSH1 0x0 PUSH1 0x1 DUP3 ADD PUSH2 0x412 JUMPI PUSH4 0x4E487B71 PUSH1 0xE0 SHL PUSH1 0x0 MSTORE PUSH1 0x11 PUSH1 0x4 MSTORE PUSH1 0x24 PUSH1 0x0 REVERT JUMPDEST POP PUSH1 0x1 ADD SWAP1 JUMP INVALID LOG2 PUSH5 0x6970667358 0x22 SLT KECCAK256 PUSH31 0xB92C9F94E55192716734FC657CE2367A354887555665336A3AFEA4FA8523CE PUSH5 0x736F6C6343 STOP ADDMOD EQ STOP CALLER "},"methodIdentifiers":{"getReceipt(uint256)":"b63e6ac3","receiptCount()":"7f038f3c","receiptExists(uint256)":"3d18f652","receipts(uint256)":"0f7ee1ec","recordReceipt(uint256,address,address,uint256)":"6b4fdcff"}}}}}